:020000040000fa
:080000000002040000000000f2
:020000040000fa
:04000800720300007f
:020000040000fa
:04000c00720300007b
:020000040000fa
:040010007203000077
:020000040000fa
:040014007203000073
:020000040000fa
:04001800720300006f
:020000040000fa
:04001c00720300006b
:020000040000fa
:040020007203000067
:020000040000fa
:040024007203000063
:020000040000fa
:04002800720300005f
:020000040000fa
:04002c00720300005b
:020000040000fa
:040030007203000057
:020000040000fa
:0400340006030000bf
:020000040000fa
:04003800720300004f
:020000040000fa
:04003c00720300004b
:020000040000fa
:040040007203000047
:020000040000fa
:040044007203000043
:020000040000fa
:04004800720300003f
:020000040000fa
:04004c00720300003b
:020000040000fa
:040050007203000037
:020000040000fa
:040054007203000033
:020000040000fa
:04005800720300002f
:020000040000fa
:04005c00720300002b
:020000040000fa
:040060007203000027
:020000040000fa
:040064007203000023
:020000040000fa
:04006800720300001f
:020000040000fa
:04006c00720300001b
:020000040000fa
:040070007203000017
:020000040000fa
:040074007203000013
:020000040000fa
:040078003c03000045
:020000040000fa
:04007c00720300000b
:020000040000fa
:040080007203000007
:020000040000fa
:040084007203000003
:020000040000fa
:0400880072030000ff
:020000040000fa
:04008c0072030000fb
:020000040000fa
:0400900072030000f7
:020000040000fa
:0400940072030000f3
:020000040000fa
:0400980072030000ef
:020000040000fa
:04009c0072030000eb
:020000040000fa
:0400a00072030000e7
:020000040000fa
:0400a40072030000e3
:020000040000fa
:0400a80072030000df
:020000040000fa
:0400ac0072030000db
:020000040000fa
:0400b00072030000d7
:020000040000fa
:0400b40072030000d3
:020000040000fa
:0400b80072030000cf
:020000040000fa
:0400bc0072030000cb
:020000040000fa
:0400c00072030000c7
:020000040000fa
:0400c40072030000c3
:020000040000fa
:0400c80072030000bf
:020000040000fa
:0400cc0072030000bb
:020000040000fa
:0400d00072030000b7
:020000040000fa
:0400d40072030000b3
:020000040000fa
:0400d80072030000af
:020000040000fa
:0400dc0072030000ab
:020000040000fa
:0400e00072030000a7
:020000040000fa
:0400e40072030000a3
:020000040000fa
:0400e800720300009f
:020000040000fa
:0400ec00720300009b
:020000040000fa
:0400f0007203000097
:020000040000fa
:0400f4007203000093
:020000040000fa
:0400f800720300008f
:020000040000fa
:0400fc00720300008b
:020000040000fa
:040100007203000086
:020000040000fa
:040104007203000082
:020000040000fa
:04010800720300007e
:020000040000fa
:04010c00720300007a
:020000040000fa
:040110007203000076
:020000040000fa
:040114007203000072
:020000040000fa
:04011800720300006e
:020000040000fa
:04011c00720300006a
:020000040000fa
:040120007203000066
:020000040000fa
:040124007203000062
:020000040000fa
:04012800720300005e
:020000040000fa
:04012c00720300005a
:020000040000fa
:040130007203000056
:020000040000fa
:040134007203000052
:020000040000fa
:04013800720300004e
:020000040000fa
:04013c00720300004a
:020000040000fa
:040140007203000046
:020000040000fa
:040144007203000042
:020000040000fa
:04014800720300003e
:020000040000fa
:04014c00720300003a
:020000040000fa
:040150007203000036
:020000040000fa
:040154007203000032
:020000040000fa
:04015800720300002e
:020000040000fa
:04015c00720300002a
:020000040000fa
:040160007203000026
:020000040000fa
:040164007203000022
:020000040000fa
:04016800720300001e
:020000040000fa
:04016c00720300001a
:020000040000fa
:040170007203000016
:020000040000fa
:040174007203000012
:020000040000fa
:04017800720300000e
:020000040000fa
:04017c00720300000a
:020000040000fa
:040180007203000006
:020000040000fa
:040184007203000002
:020000040000fa
:0401880072030000fe
:020000040000fa
:04018c0072030000fa
:020000040000fa
:0401900072030000f6
:020000040000fa
:0401940072030000f2
:020000040000fa
:0401980072030000ee
:020000040000fa
:04019c0072030000ea
:020000040000fa
:0401a00072030000e6
:020000040000fa
:0401a40072030000e2
:020000040000fa
:0401a80072030000de
:020000040000fa
:0401ac0072030000da
:020000040000fa
:0401b00072030000d6
:020000040000fa
:0401b40072030000d2
:020000040000fa
:0401b80072030000ce
:020000040000fa
:0401bc0072030000ca
:020000040000fa
:0401c00072030000c6
:020000040000fa
:0401c40072030000c2
:020000040000fa
:0401c80072030000be
:020000040000fa
:0401cc0072030000ba
:020000040000fa
:0401d00072030000b6
:020000040000fa
:0401d40072030000b2
:020000040000fa
:0401d80072030000ae
:020000040000fa
:0401dc0072030000aa
:020000040000fa
:0401e00072030000a6
:020000040000fa
:0401e40072030000a2
:020000040000fa
:0401e800720300009e
:020000040000fa
:0401ec00720300009a
:020000040000fa
:0401f0007203000096
:020000040000fa
:0401f4007203000092
:020000040000fa
:0401f800720300008e
:020000040000fa
:0401fc00720300008a
:020000040000fa
:040200007203000085
:020000040000fa
:040204007203000081
:020000040000fa
:04020800720300007d
:020000040000fa
:04020c007203000079
:020000040000fa
:040210007203000075
:020000040000fa
:040214007203000071
:020000040000fa
:04021800720300006d
:020000040000fa
:04021c007203000069
:020000040000fa
:040220007203000065
:020000040000fa
:040224007203000061
:020000040000fa
:04022800720300005d
:020000040000fa
:04022c007203000059
:020000040000fa
:040230007203000055
:020000040000fa
:040234007203000051
:020000040000fa
:04023800720300004d
:020000040000fa
:04023c007203000049
:020000040000fa
:040240007203000045
:020000040000fa
:040244007203000041
:020000040000fa
:04024800720300003d
:020000040000fa
:04024c007203000039
:020000040000fa
:040250007203000035
:020000040000fa
:040254007203000031
:020000040000fa
:04025800720300002d
:020000040000fa
:04025c007203000029
:020000040000fa
:040260007203000025
:020000040000fa
:040264007203000021
:020000040000fa
:10040000cf0321000eff27000e018800000000002e
:10041000000020000000e000020032000001200087
:100420002002880014000700b00007000000e00070
:1004300003003a00a0c421000100200002003700a0
:100440000000200001002000810f70000100320038
:100450000f000700000020000000e0000200320052
:1004600000000200000000005e1802000000000012
:100470000040da000000fe00200020000000e00044
:1004800002003200100020009001880000000600e9
:10049000a1028800800478000000eb001f003700f4
:1004a000e284440054a0b4009905ba00e2844400f8
:1004b00054a0b4009906ba00e284440054a0b400e9
:1004c0000006eb00476fde00fd07b200ae018800ba
:1004d000636ce10003003a000ad801000000eb0061
:1004e0000e003700606ce10008003a00004deb00a0
:1004f0000a05e800020039003420ec000af0a000f0
:100500008b05e900f9ff3e00040037006168e10057
:10051000010032000086eb000b00070019c7ba008b
:100520000e04e0001905ba0003003a000a00e000da
:10053000dbff3a0000000600fe07b200ae028800b2
:100540008a047800f5ff37000cd0a300e20f4d00bd
:100550001c003b0089027800354dba000a05e8000e
:10056000020039003420ec000af0a0008b05e900fd
:100570000f003200254dba000a05e80002003900dc
:100580003420ec000af0a0008b05e90008003200de
:100590000c00e0000600320015cdba000a05e800a4
:1005a000020039003420ec000af0a0008b05e900bd
:1005b0008984e80054a0b4000b00e000e2ff3a0098
:1005c000000006009902ba00055d78008b05e9007d
:1005d000f7ff3200c82ade00055d78008b05e900d0
:1005e000f3ff32000c00e000f1ff320019ddba0029
:1005f000eeff37003a190400000000005c19040007
:10060000000000009e19040000000000801f780018
:100610003200f8003400f80010002000a00188002b
:100620001000200000d0fe000000fa000068a900c1
:100630002068a90005e1a900008080000000e0001a
:1006400003003a00100020000080880001003700fd
:100650000030ef0010002000108088000288a90000
:100660002288a8000080fa003400f9003200f90066
:100670004f007800004006003600f800809fbe0062
:10068000829fbe00849fbe00869fbe003200f8009d
:100690003400f80010002000a001880010002000a5
:1006a00000d0fe000000fa002288a9000288a900fc
:1006b0002103200010002000bd0807002068a800ca
:1006c0000080fa003400f9003200f9004f03be0048
:1006d0004f02be004f01be004f00be003600f900c1
:1006e000004006000040da000000fe0000000500a7
:1006f0000001be001c0007000470a70003f0a10069
:1007000003f8a30013003a006509b100100032009d
:10071000090035006928e1000200350001002800c9
:100720000000050000004000818048008502e900cb
:10073000fcff3a0000000600f88f4200050035007b
:100740008100d1000080d3008502e800fcff3a0060
:10075000000006008000eb00000005004f89de006d
:10076000820178006a033700c70ade00f107b20091
:10077000f50fb20008003200e1cf42000200320063
:100780000170a00024000500810f700001003200fc
:100790000408050044000500810f700002003a00c3
:1007a000140005008502e9000000400081c04800f7
:1007b000fcff3b000170a0002400050007f82700a3
:1007c000078361000638e10004003a00f7072000c3
:1007d000878361008703710001003a0003f0a200e3
:1007e000889fbe008a9fbe008c9fbe00470ade0025
:1007f0000480a100c71ade000580a10007002800c0
:100800000785600087856100f70f20000720e10061
:100810009e0032000728e1009c00320001067800ab
:100820000400e000b4003200f70720008780600079
:100830000170a0000500e000c0003200f7072000b2
:10084000878161000370a000050652000f003a0086
:100850000b50e1000b0032000308e10002003a00f7
:100860000200e1007e003200020450008384580040
:10087000040031000001fd008101fd008402fd0043
:100880008a05fd006044b800210037000520e10022
:1008900005003d000001fd008101fd008402fd0016
:1008a0008a05fd00050652007a60e100050035006a
:1008b0000170a1004722dd00848070008a807000f2
:1008c000630037006044b800ef02660007ff2f00a6
:1008d000070666000500e00006003400f083120001
:1008e0008714dd000511de00071bdd000601710025
:1008f0008519de007060e10005003500090478000c
:1009000082047800030178008001eb007006560035
:100910000b50e10003003a000200400083804800d1
:100920000400370060041400e0841c00020058003a
:10093000838058000188a300060032008100d100a6
:100940000080d3008984d3000884d3000402e80027
:10095000270037000178a30025003a000100e000dd
:10096000030032008186cf00698656000a003700f6
:100970008c0020000000e00004003a00090078002c
:10098000880478000004eb00700252008086cf00db
:100990000d0646000c06e9007060e1000600350017
:1009a0008000780009007800880478000004eb00db
:1009b00070065600700252000c00e0000c0034007b
:1009c0008c08dd00f00316000703de00868070004f
:1009d0000c00dd00074bde00060070008c4cdd00d3
:1009e0000743de00868474000c44dd000c025200d4
:1009f0006120e1002000350061016000070028004f
:100a000087816400f7ff2700878364000703740071
:100a10000300e0000600320082037300040032008d
:100a20000000e800e08048000188a3000e003a00c2
:100a3000f70f20000720e1004a003d000170a100ef
:100a40004722dd00810072008a8070000000be0035
:100a50004f06be004f05be004f04be00000006005a
:100a60006000b800faff37008100d1000080d30099
:100a70000402e800eeff37000401780089017400e9
:100a8000a10107008a807000f1ff3700f70107001d
:100a9000070278000001fd008101fd00f30107005d
:100aa00087027800850372000778a30004003200f3
:100ab0000001fd008101fd0006020700e4ff370090
:100ac000850362000768a300080032000b50e100b4
:100ad00003003200f0ff2f00f1ff2700dcff37009a
:100ae0000001fd008101fd00d9ff37000468a3006b
:100af000d7ff3200faff3700f8ff27008883600035
:100b00000b003a000000e00009003a008303640093
:100b100082837300020032000200be00ccff370067
:100b20000b50e100ceff3a000200be00c8ff3700c4
:100b300014002000810064003eff3700f8ff27000a
:100b40008883610004003a000200e00002003a00dd
:100b50008c007800beff3700150020008301640080
:100b600039ff370001f827000000200081007500e0
:100b7000b7ff3700889fbe008a9fbe008c9fbe00d3
:100b80001b0020000202be00058668000600280047
:100b9000060666004709de00f20fb200820032004e
:100ba0000243e80080003200c729de00f30fb200e4
:100bb0007d0032000343e8007b003200f107b20001
:100bc0000170a000f507b2000570a000c708dd00a5
:100bd0004903de00868070004700dd00c72add0083
:100be0004923de00868272004722dd0003055100a2
:100bf00004035000858358000300310000004000ca
:100c0000818048000a05e9008c1f78008a9fbe0099
:100c100004005000858058000402420085824a008a
:100c200000004000818048000005eb000004be0089
:100c30006033b8000406be000d48e10056003100e4
:100c4000110009004dccd8000c01b8000d02b8000d
:100c50008481410060824a008283530003045c0067
:100c600084845c0060055d000a00e00025003a0015
:100c7000800578000d40e1004900310088007800cf
:100c800007007800110009004d88d8000c01b80059
:100c90000d02b8008481410060824a0060031100a7
:100ca00083835b0004045c00e0845c000900e000d6
:100cb00021003a004f01be000300e0002b0032008b
:100cc000e3016000070673008c81710001003200af
:100cd000640070004200de004e5edd000c0070001b
:100ce000c258de0001e0a00083010700cf017800b8
:100cf000818071004f06be004f05be004f04be004c
:100d0000000006008c8343000d044c00e0844c007e
:100d100060054d000000e9000a00e000d4ff320049
:100d20008c8343000d044c00e0844c0060054d00b2
:100d30000000e900ceff37000c0343008d834b0019
:100d400060044c00e0844c000000e9000900e00071
:100d5000d8ff32000c0343008d834b0060044c002d
:100d6000e0844c000000e900d2ff37004200de00c2
:100d70004e5edd000c007000c258de0001e0a000f5
:100d8000cf0178000300e000daff320060001000bd
:100d9000e0801800d7ff3700f0ff2f00aaff3700d0
:100da000f0ff2f00b9ff37000404be002f01070039
:100db000870678000004fd008104fd002b01070078
:100dc000078366000678a300030032000960a700cd
:100dd0000800be002c0037000d78a300020032008e
:100de0000800be00280037000778a30026003a005c
:100df00001f0a10009f0a1000668a3000300320081
:100e0000f1ff2700f0ff2f00baff37000d68a300a5
:100e1000030032000800be008c807000b5ff370070
:100e20000768a30007003a000648a3000300320049
:100e3000f1ff2700f0ff2f00aeff37000d48a300a1
:100e4000030032006000b8008c807000a9ff3700fa
:100e50000748a3000400320001f82700000020002a
:100e60008c807000a3ff3700760107000004fd00ae
:100e70008104fd0002057800720107000802be002f
:100e80008a01780059ff37000160a000120220009b
:100e90006280880097ff37000100e00012003200f6
:100ea0000500e00010003200889fbe008a9fbe004f
:100eb0008c9fbe000006eb0001f8a3000300320087
:100ec00060001000e08018000cf0a00005f8a300fe
:100ed0000300320060021200e0821a000cf0a2004f
:100ee0008005eb0041ff37006000b80002000500fc
:100ef000038368000700280007036300470ade0039
:100f00000480a100c71ade000580a100f70f2000b1
:100f10000720e100420032000728e10040003200d3
:100f2000889fbe008a9fbe008c1f7800f107b20028
:100f3000f307b2000400e000640032000170a0007a
:100f40000500e000680032000370a0008505420043
:100f5000eb07b1000204b8000302b8008484440027
:100f600060854a00020ab800848444000a854a0069
:100f7000030ab80004054500040033000804d0004b
:100f80008984d2000a85d2008b05e9006158e1000e
:100f90003d00350002102000090161000308200017
:100fa00089816100f7072000878364000886730049
:100fb000c84cde00c853dd00878474004855de004d
:100fc0000300e000060032008203760004003200d5
:100fd0008904e80060054d000a88a3000c003a006f
:100fe000f70f20000758e10044003d000a70a100ff
:100ff000c75ddd000a8575008a007300090078006e
:101000004f0678004f05be004f04be0000000600ea
:101010000a05d1008984d3008b05e800f0ff370072
:10102000881f780006047800900007000702780007
:101030000001fd008101fd008c000700870278009f
:10104000850372000778a300050032000001fd004f
:101050008101fd009f0007004f047800000006009a
:10106000850372000748a30003003200f0ff2f0041
:10107000f1ff2700f8ff37000000200001f82700eb
:1010800088807000f4ff3700880178004848dd0050
:10109000808171004848de00c850dd00010070000a
:1010a000c850de00060478000b0178001600070027
:1010b00088807000d2ff37000500e0000500320094
:1010c000170020003a0007009dff370081037000e1
:1010d000f9ff3a00860078004f0678004f05be0001
:1010e0004f04be000000050083037100f9ff3200c9
:1010f000270020002e00070094ff370001f827008a
:1011000086807000f4ff37000100e0002600320006
:10111000610111007810e10023003c006022b8005a
:101120007010e100040035008002780001007800b2
:101130008000eb00700151000200e0000900340063
:1011400070031100062add00822ade008603dd001e
:10115000878272000200de00860bdd00070070004f
:101160008208de0084817100f4ff2700048262009f
:1011700084817100040028008482620061026000a2
:1011800005f0a6000000060004827100070032008e
:101190000000e800e0804800000006000002be00f9
:1011a0006000b800efff37006000b80000000600e4
:1011b000889fbe000004eb006138e10016003a0091
:1011c0000100e00008003a00c800de004800dd0031
:1011d000880020000100e00003003a00c800de00a3
:1011e0004800dd00680444008184cf00e984540095
:1011f000060034008908dd00f08314008703de0058
:10120000878070000900dd000904440061021400b9
:101210004f04be00000006000300e00008003a0092
:10122000c811de004811dd00880020000300e00046
:1012300003003a00c811de004811dd0068044400d4
:101240008384cf00e9845400060034008919dd004e
:10125000f08314008713de00878171000911dd001f
:1012600009044400e1021400e9ff370027002000d0
:1012700001f0a70017002000470bde00f60fb200b8
:10128000040032000643e8000a0032004702b300bf
:101290000000060001037800f607b20006037000a4
:1012a00002003a000703b300000006008702b30003
:1012b0000000060001037800f607b2000603700084
:1012c000020032000770a000000006000760a000c6
:1012d000000006000478a300040032000578a30093
:1012e000030032000168a30001003a000200be00c2
:1012f0000160a0000000060081017000270032009c
:101300008002eb0001f8a30003003200600010002f
:10131000e080180015002000f407200002024200bf
:1013200020003400f703200087036000060420003b
:101330000003630002082000000161004700de0096
:10134000c909dd0000807100c708de000600e0006a
:101350000800320087037100060032001000b00060
:101360000180b0000188a30002003200c108de0045
:101370000402e800f107b200f30f20000320e100af
:1013800003003d004722dd00810072002900370084
:1013900001f827000000eb00260037006000b800cd
:1013a00000000600680212007f20e1000200340005
:1013b0006000b8001f0037006011b8007020e10025
:1013c0000400350080017800010078008000eb0007
:1013d000700252000400e00009003400f003120023
:1013e0000719dd008419de000703dd008681710026
:1013f0000400de00070bdd00060070008408de003c
:10140000f7ff27008383630087037100060028002d
:1014100003036300070032000700e00003003a0006
:101420006101600002817300020032001000b00010
:101430000180b0000500a6000000060001f0a00039
:10144000000006004f0ade004709de00f107b20087
:10145000f20fb2000b003200f207b1000170a000e1
:10146000c708dd00c901de00838070004700dd0091
:101470000400a6000000060060001000e0801800d4
:1014800000000600810f700001003a000000060015
:101490008182cf000500e00010003e008082cf0076
:1014a000ee8242007028e1000400390007003e008f
:1014b000800078000000eb000e00370070831200ff
:1014c0008600de000500dd000a0037007083520050
:1014d0008600dd000000eb0006003700e2825200cb
:1014e0008508dd00708312000603de008680700030
:1014f0000500dd007507b0000501ea000400a60044
:101500000000060060001000e080180000000600e7
:10151000881f7800030478000300e00007003d0006
:1015200060001000e080180060011900e0811900df
:1015300002003b0001f02d0003003700040007000b
:1015400008f0a70001f0a0004f047800000006009a
:10155000889fbe008a9fbe00008270000402710056
:1015600004827100260032000004be000200be00aa
:101570006011b8006b092000950220000182cf00a5
:101580000a0039000541b1000082cf000700390090
:101590000541b1000982cf00040039000541b100c6
:1015a0000882cf00010039000541b1000542520018
:1015b000120032000a003b00828171006101640068
:1015c0008100d1000080d3008984d3000884d30037
:1015d0008b05e8000442e800f7ff3a0007003700f7
:1015e0000804440089844c000000480081804800c1
:1015f0008b05e9000442e900f9ff3a000300070007
:101600004f05be004f04be00000006008100200010
:10161000618055000b003d000b00200061fe2f0093
:101620000100e1001d00340082817100610164004d
:101630008904d1000884d3000000e800faff3a00d2
:10164000710020006100640003007000020060006f
:101650000900320061044400e0844c000988a500c0
:10166000050032008b05e8006808e10002003a003e
:101670008904d1000884d300f20f20000258e10051
:1016800005003d00c75ddd00f907b20089807500e7
:1016900008007800000006000bf827008b00780097
:1016a000000005004f02b000889fbe008a9fbe0068
:1016b0008c9fbe008e1f78000005be000204be0095
:1016c000b2af9f00c3af9f00b2b79f00c3b79f00e8
:1016d000cfae97000df0a10002067800e00f560093
:1016e000e08f5e00c3033200faaf9f008bb79f000c
:1016f0000000200001f82300800f5500818f5d005d
:10170000bc0332008fb2970005f0a1007faa9700ba
:1017100094b79f00a5b79f000000200001f82700a4
:10172000800f5200818f5a0003003c00800f56004a
:10173000818f5e00040034000a01be000800be0074
:1017400027fc0700b20337006033b8007fa9970079
:101750008fb19700e00f5100e08f590029003d0044
:101760002600200007002000f0ff2f00f1b7240022
:10177000800f5600818f5e0022003c006033b8006d
:10178000f0ff2f00f1f72300800f5600818f5e00dd
:101790003300340047e8de00cfe8de00f007b10098
:1017a0000180b100770110000c00be0082017800ba
:1017b0008301e900030033008180d1000080d30061
:1017c000fbff37000003be00020778000e07e900a8
:1017d000030033000603430087834b00fbff370001
:1017e0000601be006033b8008c0f51008d8f590088
:1017f0001b003a006103600062031300e0831b00da
:10180000170037000000200001f82700800f560065
:10181000818f5e0012003a000000200001f82300d2
:10182000800f5200818f5a0072033200060034008c
:101830003fb09700cfb09700e00f5000e08f580006
:1018400074033d006e0337003fb19700cfb197009e
:10185000e00f5100e08f590069033d006900370037
:101860000000200001f82300800f5600818f5e00e9
:1018700009003a003fb29700cfb29700e00f520044
:10188000e08f5a0060033d000a01be000000200006
:1018900001f823005500370000002000010024005b
:1018a0003fb19700cfb19700800f5100818f590051
:1018b00003003a000a01be000a00be004b033700d5
:1018c0000000200001f023003fb19700cfb1970046
:1018d000800f5100818f590008003a007fa89700bf
:1018e0008fb09700e00f5000e08f580003003500e4
:1018f0000a00be0078030700450337000a00be0057
:10190000f4b79f0085bf9f00d6b79f00e7b79f0041
:10191000fb0307000200200003f827007fb29700b6
:101920008fba97005fb39700efb39700820f520012
:10193000838f5a0008003200e00f5200e08f5a00f7
:10194000050032000200200003f82300820f52003d
:10195000838f5a002d003a003fb19700cfb1970016
:10196000e00f5100e08f59000c003d000001be0067
:101970000000200001f82300f4b79f0085bf9f00fe
:10198000d6b79f00e7b79f007afc07007fb29700a9
:101990008fba97005fb39700efb397007fa99700c6
:1019a0008fb19700e00f5100e08f590018033d0000
:1019b0000200200003082c00040241008582490037
:1019c0000402730085827300e00f5200e08f5a001a
:1019d00008003a0012022000d28188000001be00f7
:1019e0000200be0075fb07000001be0061fc07009d
:1019f00007033700e10f5300e08f5b0004033a0058
:101a00000004be0009f0a200020337007fa997007e
:101a10008fb19700e00f5100e08f59000d003d009d
:101a2000e00f5300e08f5b0004003a00100220003a
:101a3000d08188000a01be00e9ff3700e10f5300a2
:101a4000e08f5b00080032000600200007f823004a
:101a5000070037000200200003f82300f2af9f00c8
:101a600083b79f00040037000600200007f82b0012
:101a7000f6af9f0087b79f000200200003d024002c
:101a8000820f5600838f5e005600340072ff2f00d5
:101a9000f3f72300820f5200838f5a0006003c00a8
:101aa0003fb09700cfb09700e00f5000e08f580094
:101ab00007023d00e50137007200200003f8230013
:101ac000820f5200838f5a00060034003fb1970006
:101ad000cfb19700e00f5100e08f5900db013c00cf
:101ae000fb0137000200200003f8230033fb07004e
:101af0000005be0002a02a0083fb2300fcfc0700b7
:101b000090b79f00a1b79f0002572a00c36e230021
:101b10000a00be00f6fc07000002be000a01be007b
:101b20000a00be00f4b79f0085bf9f00f0fc0700cd
:101b30000006be000200200003e823000a00be00e9
:101b4000ebfc07000001be00b0aa2a00a1ea2300b6
:101b50001afb07000001be000a00be00e4fc0700fb
:101b60000001be000000200001f0230013fb07006d
:101b70000001be000c00be00ddfc0700b2a32a007d
:101b800083fb2300dafc07000001be007fb2970050
:101b90008fba97000400be0008fb07000005be00d6
:101ba0000001be001fb09700afb097000cfb07000c
:101bb0000001be008300780004002f0002006200d4
:101bc0000003be00b6b79f00c7b79f001fb19700c4
:101bd000afb19700f9fa07000001be000a00be008d
:101be000590137006011b800f6ff2f00f7072000f9
:101bf000860f5200878f5a0007003c000200200029
:101c000003b82400bafc070090b79f00a1b79f005b
:101c100082fe2f00f3ff2f00f207b1000380b10016
:101c20002fb2970047a0de0084027800cfa8de0024
:101c3000020340008383480096af9f00a7af9f0038
:101c400085007800f107b2001fb097000200200065
:101c500003f82300020270008382700094b79f0093
:101c6000a5b79f006033b800d6af9f00e7af9f00d5
:101c700012472c00c3012000820f5000838f5800b0
:101c80001a0034001200200003002000d2af9f0091
:101c9000e3af9f00623d2b00d3052000820f500070
:101ca000838f5800110034001faa9700afaa970035
:101cb00061024200e0824a0094af9f00a5af9f00fe
:101cc0000000200001f82f001fb39700afb397006a
:101cd000060340008783480096b79f00a7b79f0080
:101ce0006000b800d0af9f00e1af9f00dfa8970071
:101cf000c208dd0081af9f00e0002100010040002c
:101d000010057800900590000a01be001fb09700f2
:101d1000afb09700a9fa07000006be000a01be0096
:101d20001fb09700afb09700adfa07000001be00ea
:101d30000000200001f823008efb07000002be0017
:101d40000001be000c00be00f4b79f0085bf9f00dd
:101d500067fc07000003be000e002f008101780021
:101d6000c3b79f0000016700b2b79f005fa897004c
:101d7000efa89700c500dd0000002000d0af9f0055
:101d8000e1af9f0000002000010420005fa9970040
:101d9000efa997000201400083814800d2af9f0065
:101da000e3af9f001fb09700afb097008181d100d3
:101db0000081d3008300780001d0a10002006700f9
:101dc00001d0a0005fa99700efa997000201400091
:101dd00083814800d2af9f00e3af9f005fa99700c7
:101de000efa997003fb09700cfb09700d6b79f00fc
:101df000e7b79f003efc07000001be000c00be00dc
:101e00006efa07000006be000a01be005fa8970038
:101e1000efa8970069fa07000001be001fb0970005
:101e2000afb0970065fa07000001be003fb0970011
:101e3000cfb097002efc07000001be000c00be00d2
:101e40005efa07000001be007fb297008fba9700cc
:101e50000400be0026fc07000006be005fb397002a
:101e6000efb397000601be000600be0020fc07008d
:101e70000005be000001be001dfc07000002be0000
:101e800022142f0033e523000a00be00f4b79f00a0
:101e900085bf9f0016fc070052252300c3e62300e0
:101ea0004ffa07000001be000a00be0010fc070048
:101eb00052302a00b3e8230049fa07000001be00af
:101ec0000a00be000afc0700b2aa2a00a3ea230007
:101ed00043fa07000001be000a00be0004fc070030
:101ee00072db2600b3ed23003dfa07000001be00bf
:101ef0000a00be00fefb0700a299290093f123000f
:101f000037fa07000001be007fb297008fba970032
:101f10000400be00f6fb07000005be005fb397009b
:101f2000efb397000601be003fb09700cfb0970017
:101f30002bfa07000001be000c00be00ecfb0700fe
:101f40000001be000a00be0025fa070090b79f00fe
:101f5000a1b79f003fb19700cfb197000200be002c
:101f6000e3fb07000005be0002002000030424007c
:101f70001bfa07001fb19700afb1970018fa0700ce
:101f800081027800000267000401be003fb09700a4
:101f9000cfb09700f4b79f0085bf9f00d4fb070028
:101fa000b0b79f00c1b79f007fb297008fba97006c
:101fb0000401be000c00be00cdfb07000006be0001
:101fc00002002000030424007fb297008fba97001c
:101fd0000400be00f9f907000a01be00f7f9070086
:101fe0000001be001fb09700afb09700f3f90700e3
:101ff0005fb39700efb397000601be00bcfb07007c
:102000000001be000c00be00f5f907000005be008f
:102010000001be003fb09700cfb09700f0f9070075
:1020200081027800000267000200240063f72300a9
:102030000400be00f4b79f0085bf9f00acfb070003
:1020400090b79f00a1b79f00623c2200638f2b00d6
:102050007fb297008fba97000400be00a4fb070070
:102060000006be003fb19700cfb197007fb2970046
:102070008fba97000400be00d0f907000001be002f
:102080000a00be00cdf90700f284230063f72300a5
:1020900097fb07000001be000c00be00d0f907004e
:1020a000620121008fab970007014100920190006f
:1020b00012017800caf90700d0af9f00e1af9f007e
:1020c0001fa89700afa89700a4f907000006be005c
:1020d000e00121008fa9970003004000100578005f
:1020e000900590005fa99700efa997001fb0970097
:1020f000afb09700baf907000a01be00b8f90700af
:102100000c01be00b6f907000001be008300780094
:10211000020067000002be00b4b79f00c5b79f0071
:102120000c01be00a5f907000a01be00a3f90700d3
:102130001fb19700afb19700a0f907000001be00e2
:102140005fa89700efa897009cf907000005be0064
:10215000cfaa970000002f00bfab970007026000d6
:102160000401be000800be00f4b79f0085bf9f00b9
:1021700092f907003fb19700cfb197005cfb0700d1
:102180000006be000a01be000800be0058fb0700a2
:102190000001be000c00be0091f907000004be0063
:1021a0003fb19700cfb197007fb297008fba9700e9
:1021b0000400be004efb07000005be00b0b79f0044
:1021c000c1b79f000a01be000800be0084f90700e5
:1021d0000006be000003be00000020000130240005
:1021e000800f5600818f5e0018003c00800f560063
:1021f000818f5e001d003a00c2a32a0083332300b2
:102200000800be00dcb79f00e7b79f0074f9070025
:102210000002be000a01be000c00be00f4b79f0021
:1022200085bf9f0065f907000001be007fb29700df
:102230008fba97000400be00b80107005fb3970093
:10224000efb397000000e00029003400a22c2f001b
:10225000931427007fa897008fb0970024fb0700f6
:10226000a22c2f0093142700e0003700870178008c
:1022700003f0a1000c01780000002000613124006f
:10228000800f5100818f590011003c000000200098
:1022900061312c00800f5600818f5e0014003a00df
:1022a0000a01be000c00be00dcb79f00e7b79f002c
:1022b00042f907000001be000800be0095010700ba
:1022c0005fb39700efb397000000e00008003c0008
:1022d0000226240023da20007fa897008fb0970001
:1022e00003fb07000226240023da2000bf0037008a
:1022f0008701780003f0a100060178006022b80091
:102300000000200001f02300800f5100818f590050
:102310003a0034004798de0022f82f000001410007
:1023200000002000010820000201e9000300330042
:102330008180d1000080d300fbff37000000430004
:1023400081804b00010678008c01780003f0a10029
:10235000479ade00cf9ade000401be00f207b1000a
:102360000380b100b2b79f00c3b79f00f4ff2f00f6
:10237000f5072000bfb197008301e9000300330097
:102380008582d1000482d300fbff37000482ea007b
:102390008582ea008501660000016200fd072000d9
:1023a0008d026600000278000570a0003fb797001c
:1023b000770017000000e900030033008582d10098
:1023c0000482d300fbff3700e00f5300e08f5b0077
:1023d00002003d0060021200e0821a000a00be0006
:1023e000f4b79f0085bf9f00f4f80700b0b79f00c7
:1023f000c1b79f008fba97007fb297003fb1970097
:10240000cfb197000800be00f4b79f0085bf9f00c2
:10241000f3f807008106780002002800000661003a
:102420000220270013f323000c00be00b0fa0700bf
:102430000005be003fb19700cfb197000c00be0071
:10244000def807000001be000800be00dbf8070050
:102450008221270013f32300a5fa07000004be0021
:10246000c2e82b00f35b23000c00be00a0fa0700bb
:102470000001be000800be00d9f807000006be003b
:102480000001be000a00be00d5f807000004be002f
:102490000a01be00c9f807000001be000c00be0022
:1024a000c6f80700b0b79f00c1b79f000801be0083
:1024b0000800be008efa07000005be00c2b42b0063
:1024c000133323008afa0700e2a02e00d35d230015
:1024d000baf807000001be000a00be0084fa070037
:1024e00052352b00a3882300bdf807000001be0071
:1024f0000a00be007efa070012b6200063b3230074
:10250000aef807000001be000a00be0078fa07001e
:10251000b2aa2a00a3e22300b1f807000001be001e
:102520000a00be0072fa07000001be000800be00eb
:10253000a2f807000005be000001be000800be00b2
:102540006bfa07000006be00020020000300240012
:102550000a00be0099f807000001be000c00be0092
:1025600084f907000005be003fb19700cfb1970086
:102570000800be005efa07000001be003fb09700f1
:10258000cfb0970096f807000001be000a00be0019
:102590008af807000801be0088f807000001be00a5
:1025a0000000200001f8230084f807007fb29700a4
:1025b0008fba9700c721dd00020020000201400011
:1025c00083814800479bde00cf9bde00e00f530075
:1025d000e08f5b0003003c0004017800140007005a
:1025e0000001be007fa897008fb0970040fa070057
:1025f000070037000800200009f823000500370015
:102600006044b800030037000a04be000100370030
:102610000004be000800be004f0778004f06be0051
:102620004f05be004f04be004f02b100000006007f
:10263000889fbe0002047800f9072000890f54002b
:102640000d0034000200200003f0270028fa0700e4
:10265000f807b100890f5400170034000200200071
:1026600003f0270022fa0700f807b100890f540091
:1026700010003c001000370029f82f00890f54008b
:102680000d003d000200200003c8200018fa0700da
:102690006806b000890f540007003d0002002000ca
:1026a00003c8200012fa07006806b000890f540022
:1026b00001003d0009047800f207200008014100f4
:1026c000cf91de00c711dd000200200008fa0700ec
:1026d0004f04be0000000600889fbe008a9fbe0017
:1026e0008c9fbe000004be000400200005f82700f7
:1026f0008583600004037800840f5300858f5b009e
:1027000007003a000801be000800be00f8f9070003
:102710000001be000800be0031f8070010003700bd
:10272000e00f5000e08f58000f003c00810178005e
:1027300003f0a10000017800e00f5100e08f590084
:102740006a00320010022000d08188000801be001b
:102750000800be0019f807000001be0005f90700d7
:102760000004be0061003700478cde00cf8cde0025
:10277000e00f5400e08f5c000f003a006044b800a6
:1027800004003700000040008180480061044400dc
:10279000e0844c00040020000508200081816200d4
:1027a00004017800e00f5100e08f5900f5ff32007e
:1027b00061041400e0841c00f807b1000980b10036
:1027c00081017800f307b200000178000200be002a
:1027d0000170a0000808a3000200320000004000c1
:1027e000818048008984d1000884d3000000400023
:1027f0008180480094012000020020000310200086
:102800006055b8006066b8000c0341008d83490034
:10281000800f5300818f5b0006003c0006064100dc
:102820008786490006005000878058000a0541004d
:102830008b85490000004000818048008301d10061
:102840000281d3000402e900efff3a00e00f5000dc
:10285000e08f58001b0032000226240023da2000fb
:102860000000200001f82300d4f707000200200038
:1028700003f82300290007000000e00011003500e4
:102880000226240023da20000000200001f82300a3
:10289000d3f707000200200003f823001f00070001
:1028a0000000e0000300340062054500e0854d00b3
:1028b000040037006000b8006100650000054500b5
:1028c00081854d00c744dd00080020000000200085
:1028d00001f0230008044000898448008b85d10062
:1028e0000a85d3000804450089844d000800be0015
:1028f0004f06be004f05be004f04be00000006009c
:102900000001be008300780001f0a1000200780001
:10291000000006001400200002003700f4ff2f0022
:1029200000003700889fbe008a9fbe00841f780089
:10293000170007004f00780011003300f0ff2f0050
:10294000838f6c0006003b00040565000a00a700a9
:102950000800370009f0a60010002000080037002a
:10296000820f5400838f5c000300390010002000a8
:1029700001003e000000200009f0a7000000ea006e
:102980004f05be004f04be000000e000000006003e
:102990000004be0074f707000003be000405be007b
:1029a0000200be0070f70700844f750000000600ab
:020000040000fa
:1029b0000c00fa00889fbe0040079800510798005d
:1029c0000000200001382400008fbe00000020001d
:1029d000a147240020079800310798004e0090007e
:1029e000e10f50001a003a00210880000003200087
:1029f00001007000200888000021ef000068a90095
:102a00001e0178009e0190000044250091c824001a
:102a100058f807000004be005e009000cf80de0082
:102a20004ef707002e019000be01900051f80700fc
:102a30000001be000800be002df907002cf70700ba
:102a4000000078001008880005e1a8007300370036
:102a50004e009000e20f50001a003a0081088000fa
:102a60000003200001007000800888000621ef00ac
:102a700000e8a9001e0178009e0190000044250096
:102a800091c824003bf807000004be005e009000df
:102a9000cf80de0031f707002e019000be019000cc
:102aa00034f807000001be000800be0010f907005e
:102ab0000ff70700000078006008880011e1a80007
:102ac000560037004e009000e30f50001a003a0005
:102ad0009108800000032000010070009008880029
:102ae0000a21ef000108a9001e0178009e01900054
:102af0000044250091c824001ef807000004be0011
:102b00005e009000cf80de0014f707002e019000d9
:102b1000be01900017f807000001be000800be00cb
:102b2000f3f80700f2f6070000007800700888004c
:102b300013e1a800390037004e009000e40f500068
:102b40001a003a00f1088000000320000100700024
:102b5000f00888001421ef000368a9001e01780026
:102b60009e0190000044250091c8240001f8070050
:102b70000004be005e009000cf80de00f7f6070084
:102b80002e019000be019000faf707000001be0080
:102b90000800be00d6f80700d5f607000000780050
:102ba000d00888001fe1a8001c0037004e009000ec
:102bb000e50f500019003a000109800000032000d1
:102bc00001007000000988001821ef000388a900a7
:102bd0001e0178009e0190000044250091c8240049
:102be000e4f707000004be005e009000cf80de0026
:102bf000daf607002e019000be019000ddf7070015
:102c00000001be000800be00b9f80700b8f60700d2
:102c100000007800e008880021e1a8004f04be0011
:102c20000080fa00000006000200fa00000f7800a1
:102c30001e007800e10f500007003a0000408000bd
:102c4000680060000000e0002f0032000068a9006a
:102c5000100020002d0037001e007800e20f500009
:102c600008003a0001408000000820000080600059
:102c70000000e0002400320000e8a900100020005d
:102c8000220037001e007800e30f500008003a00d1
:102c90000140800000102000008060000000e00083
:102ca000190032000108a9001000200017003700a9
:102cb0001e007800e40f500008003a001140800028
:102cc00000802000008060000000e0000e00320064
:102cd0000368a900100020000c0037001e007800d7
:102ce000e50f500008003a0011408000000021006c
:102cf000008060000000e000030032000388a900ab
:102d000010002000010037000000eb000080fa00f6
:102d1000000006000400fa00000f78001107980078
:102d20009e0090001e00780021ff070000000000b8
:102d30001e007800bcff0700e10f5000fcff3a00c6
:102d40000080fa00000006000400fa00000f78007e
:102d5000214798001e00780010007800e20f500014
:102d60000f003200e30f50004a003200e10f500024
:102d700072003a00ae40900040c2b30080cf5000d5
:102d80006d003a001e007800210020000108780044
:102d90001e0078008000eb0061309800670037006b
:102da000ae409000c0c2b30080cf50000e003a0089
:102db0001e00780031002000010878001e00780015
:102dc000603090009e007800008040000080e800a5
:102dd0008040eb00014878001e0078008000eb0086
:102de00071309800550037001e0078006030900068
:102df000e60f500007003a001e0078001100200086
:102e0000010878001e0078008000eb006130980017
:102e10004a003700ae409000a0c2b30080cf5000ff
:102e20000f003a001e007800110020000108780011
:102e30001e007800603090009e0078000080400006
:102e40000080e8008040eb00014878001e00780018
:102e50008040eb0001489800100020003800370047
:102e60001e007800603090009e00780000804000d6
:102e70000080e800ae409000014878001e00780015
:102e8000603090008000e8001e00780061309800fb
:102e90002a003700ae409000a0c2b30080cf50009f
:102ea0000c003a001e007800110020000108780094
:102eb0001e007800703090009e0078000080400076
:102ec000680040008040eb000148780010002000be
:102ed0001b0037001e007800f030900040062000f4
:102ee000808f500007003a001e007800110020007b
:102ef000010878001e0078008000eb007130980017
:102f00000e0037001e007800703090009e007800a0
:102f10000080400068004000ae409000014878000a
:102f20001e007800703090008000e8001e007800dd
:102f30007130980001003700000000000000eb0035
:102f40000080fa00000006000800fa003007980030
:102f50000000eb00000f78000000eb001007980065
:102f600010002000200798001e007800be0090008e
:102f70000080400090407800d0c2b30080cf500065
:102f800004003a000080eb00200798001e0fe800c4
:102f90001a0037001e007800be009000008040003c
:102fa00090407800b0c2b30080cf500012003a00c9
:102fb00010002000200798001e0fe8000f003700c7
:102fc0001e009000ea00b900100798001e0078006b
:102fd000be00900000804000104078000000fb0020
:102fe0000003b1009e009000008040001007980090
:102ff0001e0fe80001003700000000001e007800ee
:10300000be0090000080400090407800c0c2b30035
:1030100080cf5000060032001e007800be009000f5
:1030200000804000104078000004e000e4ff3a0017
:10303000ae0090001e0090008088b9000080fa0069
:10304000000006000400fa00000f78001107980045
:10305000030037001e0090000000e80010079800f1
:103060001e0090001e00400090407800c0c2b300d7
:1030700080cf5000050032001e0090001e0040006e
:10308000104078000004e000f2ff3a001e009000bb
:103090001e00400090407800c0c2b30080cf5000b6
:1030a00003003a001e0090000000e800100798009e
:1030b0001e0090000080fa00000006001400fa00d4
:1030c0006e2eef0070738000707288007072800046
:1030d000f0718800f071800070718800707180005c
:1030e000f0708800f070800070708800110020007f
:1030f000500020002efe07000030ef000230ef00ed
:10310000420021006000b8000089be00420021009a
:103110006000b8002001980031019800000ea9005d
:10312000040ea800110ea900150ea800502ea9002b
:10313000542ea80001358000f00f28008080600028
:10314000008025000100700000358800112ea900c4
:10315000152ea8000000eb00000f7800803e200034
:1031600010079800a0932100300798000000eb00a2
:10317000400798001000200020079800e0ff2f0073
:1031800050079800803e200060079800c0952100fd
:10319000000f98000000eb00100f980010002000b6
:1031a000700798000000eb00200f980040012000fd
:1031b000300f9800e0992100500f98004000210046
:1031c000600f980010002000400f980006010700d3
:1031d000c80107003163a80031c3a8001f6ea80012
:1031e0001fcea80021e3a800c3e8a8000288a90018
:1031f0002288a8000068a90030062000201188005d
:1032000010808000e10f50000b003a000080800029
:103210000000e00003003a00100020007007980052
:10322000040037000000eb0070079800150ea9009d
:10323000542ea9000230ef00210020000e0078007b
:103240005c01070040002100900090001000780011
:1032500027f507000000780020118800000000001a
:103260005000200070fe07000000e000fcff32006c
:10327000e3ff37000200fa00000f780020708000a2
:103280006100600000f0a7000000ea000000e90013
:103290004f00de00004078000080fb00610060000d
:1032a000217080000100a1000100700020708800e2
:1032b0000080fa00000006000200fa00000f78000b
:1032c000a1708000001020000080600000f0a700c6
:1032d0000000ea000000e9004f00de000040780036
:1032e0000080fb00610060004800dd00a1708000ec
:1032f0000180a10001007000a0708800a072800011
:103300006200600000f0a7000000ea000000e90091
:103310004f00de00004078000080fb00610060008c
:1033200000004000a17280000110a10001007000a7
:10333000a07288000080fa00000006000800fa0071
:1033400030079800be009000010f780000000000d8
:1033500000198000610060000000e000fcff320006
:1033600000188000100798001018800020079800af
:103370001e009000cf80de00f8f40700ae000700ca
:103380001e0178000089be002e009000cf80de0074
:10339000f2f40700bb0007001e017800200198002e
:1033a000310198001e007800b000900020009000cd
:1033b000c40007001e017800200198003101980028
:1033c0000080fa00000006000000fa000000eb0098
:1033d000a08188000080fa00000006000000fa00ca
:1033e00010002000a08188000080fa000000060084
:1033f0000000fa000029ef000229ef00302ea9009a
:10340000304ea900306ea900308ea9000134800032
:10341000f00f2c000080600000c0a0000034880085
:103420001134800000fc2f00008060001001b30008
:103430001034880011348000f00f2c008080600070
:103440000020210001007000103488002134800029
:1034500000fc2f00008060003001b30020348800a1
:103460000148800080ff2f00008060000048880035
:103470005148800080ff2f00008060005048880085
:10348000a148800080ff2f0000806000a0488800d5
:10349000f148800080ff2f0000806000f048880025
:1034a0000080fa00000006000000fa0001488000d9
:1034b00000c02100010070000048880051488000d1
:1034c00000c021000100700050488800a148800021
:1034d00000c0210001007000a0488800f148800071
:1034e00000c0210001007000f04888000148800001
:1034f00080ff2f00008060006000b300004888005b
:103500005148800080ff2f00008060006000b30001
:1035100050488800a148800080ff2f000080600094
:103520006000b300a0488800f148800080ff2f00b1
:10353000008060006000b300f048880000c22100f5
:103540002048880000c221007048880000c2210085
:10355000c048880000c22100104988000080fa009d
:10356000000006000000fa00a1ff0700ceff0700e0
:10357000160007000080fa00000006000200fa00b2
:10358000000f78000629ef001e00780080488800b0
:103590001a29ef001e007800204988000080fa00f8
:1035a000000006000200fa00000f78001e007800fc
:1035b000304888001029ef001e007800d0488800ad
:1035c0002429ef000080fa00000006000000fa0045
:1035d0000629ef001029ef001a29ef002429ef0037
:1035e0000080fa00000006000000fa0000c4b300ea
:1035f00024e3b7002043a8002119800000f0210037
:10360000010070002019880001198000000e2000c0
:1036100001007000001988001119800030f82f0097
:10362000008060000020a000101988002343a8003b
:103630000080fa00000006000800fa002007980049
:103640003107980002002000034824002e0090005b
:10365000be00900047f50700008fbe00020020006a
:10366000030424001e0078009e00900020f607004e
:10367000008fbe001e0078009e0090000080fa00bf
:10368000000006000800fa002007980031079800a3
:1036900002002000034824002e009000be0090008d
:1036a00034f50700323323003305240010f60700f9
:1036b000008fbe001e0078009e0090000080fa007f
:1036c000000006000800fa00889fbe00200798004e
:1036d0003107980042e12a00730924002e0090006f
:1036e000be00900002f607000001be00f0282c008a
:1036f0005101240031f407000004be002e009000a8
:10370000be0090000001be00f9f5070052b82e007f
:1037100013082400f6f507000001be000800be00f3
:103720002ff407000004be00020020000304240060
:103730002e009000be009000daf70700d2cc2c00db
:10374000c3fc2300eaf507000001be000800be002c
:103750001af407000004be00020020000308240041
:103760002e009000be009000cef70700f2282c003b
:1037700053e72300def507000001be000800be008d
:1037800017f40700008fbe0002002000832c2400e5
:103790001e0078009e009000d5f50700008fbe0047
:1037a0001e0078009e0090004f04be000080fa00ca
:1037b000000006000600fa00100798002107980094
:1037c0000000eb00000f78002c0037001e0078008e
:1037d000ea00b9009e009000008040009000780050
:1037e0008100e800010878001e007800ea00b900b6
:1037f0009e0090000080400020009000e10f5000eb
:103800001d003a001e007800ea00b9009e009000fa
:1038100000804000900078001e007800ea00b900a7
:103820001e0190000000410010009000808f5000a9
:10383000110035001e007800ea00b9009e009000db
:1038400000804000b00090001e007800ea00b9003f
:103850001e019000000041004000900001000100a6
:103860001e007800ea00b9009e0090000080400031
:103870008000eb00010878001e0fe8002e00900089
:103880009e007800808f5000d0ff35000080fa0045
:04389000000006002e
:020000040000fa
:10389400261000001400000080000000001000004a
:1038a4000c000000800000000c100000020000006a
:1038b400800000000e1000001800000082000000cc
:1038c400000080003f000000c03f00000000000036
:1038d400dccfd1003500000000000000c0153f001f
:1038e4003a10000002000000800000000000000008
:020000040000fa
:1038f4000000fa00401d20004011880023a2a90006
:1039040023e2a9000134800000fc2f000080600045
:103914000000a000003488002136800000f82f0049
:1039240080806000b0042000010070002036880010
:1039340021e2a8002342a8000168a9000188a90087
:083944000080fa0000000600fb
:00000001FF
